{
  "contractName": "Library",
  "abi": [
    {
      "inputs": [],
      "stateMutability": "nonpayable",
      "type": "constructor"
    },
    {
      "anonymous": false,
      "inputs": [
        {
          "indexed": true,
          "internalType": "uint256",
          "name": "id",
          "type": "uint256"
        }
      ],
      "name": "BookBorrowed",
      "type": "event"
    },
    {
      "anonymous": false,
      "inputs": [
        {
          "indexed": true,
          "internalType": "uint256",
          "name": "id",
          "type": "uint256"
        }
      ],
      "name": "BookReturned",
      "type": "event"
    },
    {
      "inputs": [
        {
          "internalType": "uint256",
          "name": "",
          "type": "uint256"
        }
      ],
      "name": "books",
      "outputs": [
        {
          "internalType": "uint256",
          "name": "id",
          "type": "uint256"
        },
        {
          "internalType": "string",
          "name": "title",
          "type": "string"
        },
        {
          "internalType": "bool",
          "name": "isBorrowed",
          "type": "bool"
        }
      ],
      "stateMutability": "view",
      "type": "function",
      "constant": true
    },
    {
      "inputs": [],
      "name": "booksCount",
      "outputs": [
        {
          "internalType": "uint256",
          "name": "",
          "type": "uint256"
        }
      ],
      "stateMutability": "view",
      "type": "function",
      "constant": true
    },
    {
      "inputs": [
        {
          "internalType": "uint256",
          "name": "_id",
          "type": "uint256"
        }
      ],
      "name": "borrowBook",
      "outputs": [],
      "stateMutability": "nonpayable",
      "type": "function"
    },
    {
      "inputs": [
        {
          "internalType": "uint256",
          "name": "_id",
          "type": "uint256"
        }
      ],
      "name": "returnBook",
      "outputs": [],
      "stateMutability": "nonpayable",
      "type": "function"
    }
  ],
  "bytecode": "0x608060405234801561000f575f80fd5b506100546040518060400160405280600681526020017f426f6f6b203100000000000000000000000000000000000000000000000000008152506100e160201b60201c565b6100986040518060400160405280600681526020017f426f6f6b203200000000000000000000000000000000000000000000000000008152506100e160201b60201c565b6100dc6040518060400160405280600681526020017f426f6f6b203300000000000000000000000000000000000000000000000000008152506100e160201b60201c565b6104e9565b60015f8154809291906100f3906101a2565b9190505550604051806060016040528060015481526020018281526020015f15158152505f8060015481526020019081526020015f205f820151815f01556020820151816001019081610146919061041a565b506040820151816002015f6101000a81548160ff02191690831515021790555090505050565b7f4e487b71000000000000000000000000000000000000000000000000000000005f52601160045260245ffd5b5f819050919050565b5f6101ac82610199565b91507fffffffffffffffffffffffffffffffffffffffffffffffffffffffffffffffff82036101de576101dd61016c565b5b600182019050919050565b5f81519050919050565b7f4e487b71000000000000000000000000000000000000000000000000000000005f52604160045260245ffd5b7f4e487b71000000000000000000000000000000000000000000000000000000005f52602260045260245ffd5b5f600282049050600182168061026457607f821691505b60208210810361027757610276610220565b5b50919050565b5f819050815f5260205f209050919050565b5f6020601f8301049050919050565b5f82821b905092915050565b5f600883026102d97fffffffffffffffffffffffffffffffffffffffffffffffffffffffffffffffff8261029e565b6102e3868361029e565b95508019841693508086168417925050509392505050565b5f819050919050565b5f61031e61031961031484610199565b6102fb565b610199565b9050919050565b5f819050919050565b61033783610304565b61034b61034382610325565b8484546102aa565b825550505050565b5f90565b61035f610353565b61036a81848461032e565b505050565b5b8181101561038d576103825f82610357565b600181019050610370565b5050565b601f8211156103d2576103a38161027d565b6103ac8461028f565b810160208510156103bb578190505b6103cf6103c78561028f565b83018261036f565b50505b505050565b5f82821c905092915050565b5f6103f25f19846008026103d7565b1980831691505092915050565b5f61040a83836103e3565b9150826002028217905092915050565b610423826101e9565b67ffffffffffffffff81111561043c5761043b6101f3565b5b610446825461024d565b610451828285610391565b5f60209050601f831160018114610482575f8415610470578287015190505b61047a85826103ff565b8655506104e1565b601f1984166104908661027d565b5f5b828110156104b757848901518255600182019150602085019450602081019050610492565b868310156104d457848901516104d0601f8916826103e3565b8355505b6001600288020188555050505b505050505050565b6106c2806104f65f395ff3fe608060405234801561000f575f80fd5b506004361061004a575f3560e01c8063687440461461004e5780637e490a9e14610080578063ca5140c91461009c578063e1cb4d03146100b8575b5f80fd5b610068600480360381019061006391906103de565b6100d6565b604051610077939291906104a2565b60405180910390f35b61009a600480360381019061009591906103de565b61018d565b005b6100b660048036038101906100b191906103de565b610298565b005b6100c06103a1565b6040516100cd91906104de565b60405180910390f35b5f602052805f5260405f205f91509050805f0154908060010180546100fa90610524565b80601f016020809104026020016040519081016040528092919081815260200182805461012690610524565b80156101715780601f1061014857610100808354040283529160200191610171565b820191905f5260205f20905b81548152906001019060200180831161015457829003601f168201915b505050505090806002015f9054906101000a900460ff16905083565b5f8111801561019e57506001548111155b6101dd576040517f08c379a00000000000000000000000000000000000000000000000000000000081526004016101d49061059e565b60405180910390fd5b5f808281526020019081526020015f206002015f9054906101000a900460ff161561023d576040517f08c379a000000000000000000000000000000000000000000000000000000000815260040161023490610606565b60405180910390fd5b60015f808381526020019081526020015f206002015f6101000a81548160ff021916908315150217905550807f7a6277620702967bfa65133a9521f449d456f9ba720f869a5e96c44d9321e8f160405160405180910390a250565b5f811180156102a957506001548111155b6102e8576040517f08c379a00000000000000000000000000000000000000000000000000000000081526004016102df9061059e565b60405180910390fd5b5f808281526020019081526020015f206002015f9054906101000a900460ff16610347576040517f08c379a000000000000000000000000000000000000000000000000000000000815260040161033e9061066e565b60405180910390fd5b5f805f8381526020019081526020015f206002015f6101000a81548160ff021916908315150217905550807f70495d83ba5ba5c54086a9955a8c68fa91f4439242054fbe5a64b3d55300691760405160405180910390a250565b60015481565b5f80fd5b5f819050919050565b6103bd816103ab565b81146103c7575f80fd5b50565b5f813590506103d8816103b4565b92915050565b5f602082840312156103f3576103f26103a7565b5b5f610400848285016103ca565b91505092915050565b610412816103ab565b82525050565b5f81519050919050565b5f82825260208201905092915050565b8281835e5f83830152505050565b5f601f19601f8301169050919050565b5f61045a82610418565b6104648185610422565b9350610474818560208601610432565b61047d81610440565b840191505092915050565b5f8115159050919050565b61049c81610488565b82525050565b5f6060820190506104b55f830186610409565b81810360208301526104c78185610450565b90506104d66040830184610493565b949350505050565b5f6020820190506104f15f830184610409565b92915050565b7f4e487b71000000000000000000000000000000000000000000000000000000005f52602260045260245ffd5b5f600282049050600182168061053b57607f821691505b60208210810361054e5761054d6104f7565b5b50919050565b7f496e76616c696420626f6f6b20494400000000000000000000000000000000005f82015250565b5f610588600f83610422565b915061059382610554565b602082019050919050565b5f6020820190508181035f8301526105b58161057c565b9050919050565b7f426f6f6b20616c726561647920626f72726f77656400000000000000000000005f82015250565b5f6105f0601583610422565b91506105fb826105bc565b602082019050919050565b5f6020820190508181035f83015261061d816105e4565b9050919050565b7f426f6f6b206e6f7420626f72726f7765640000000000000000000000000000005f82015250565b5f610658601183610422565b915061066382610624565b602082019050919050565b5f6020820190508181035f8301526106858161064c565b905091905056fea26469706673582212207ba576eb5891e2cab7773243af3c571a55c9f5c83c4e5dd4800c153a209b646664736f6c63430008190033",
  "immutableReferences": {},
  "source": "// SPDX-License-Identifier: MIT\r\npragma solidity ^0.8.0;\r\n\r\ncontract Library {\r\n    struct Book {\r\n        uint id;\r\n        string title;\r\n        bool isBorrowed;\r\n    }\r\n\r\n    mapping(uint => Book) public books;\r\n    uint public booksCount;\r\n\r\n    event BookBorrowed(uint indexed id);\r\n    event BookReturned(uint indexed id);\r\n\r\n    constructor() {\r\n        _addBook(\"Book 1\");\r\n        _addBook(\"Book 2\");\r\n        _addBook(\"Book 3\");\r\n    }\r\n\r\n    function _addBook(string memory _title) private {\r\n        booksCount++;\r\n        books[booksCount] = Book(booksCount, _title, false);\r\n    }\r\n\r\n    function borrowBook(uint _id) public {\r\n        require(_id > 0 && _id <= booksCount, \"Invalid book ID\");\r\n        require(!books[_id].isBorrowed, \"Book already borrowed\");\r\n\r\n        books[_id].isBorrowed = true;\r\n        emit BookBorrowed(_id);\r\n    }\r\n\r\n    function returnBook(uint _id) public {\r\n        require(_id > 0 && _id <= booksCount, \"Invalid book ID\");\r\n        require(books[_id].isBorrowed, \"Book not borrowed\");\r\n\r\n        books[_id].isBorrowed = false;\r\n        emit BookReturned(_id);\r\n    }\r\n}\r\n",
  "sourcePath": "C:\\Users\\Jlidi\\Desktop\\projet_blockchain\\contracts\\Library.sol",
  "compiler": {
    "name": "solc",
    "version": "0.8.25+commit.b61c2a91.Emscripten.clang"
  },
  "schemaVersion": "3.4.16",
  "updatedAt": "2024-04-25T11:01:09.985Z",
  "networkType": "ethereum",
  "devdoc": {
    "kind": "dev",
    "methods": {},
    "version": 1
  },
  "userdoc": {
    "kind": "user",
    "methods": {},
    "version": 1
  }
}